{
  "contractName": "Polling",
  "abi": [
    {
      "inputs": [
        {
          "name": "_id",
          "type": "bytes32"
        },
        {
          "name": "_optionIDs",
          "type": "bytes32[]"
        },
        {
          "name": "_maxSelected",
          "type": "uint256"
        },
        {
          "name": "_startDate",
          "type": "uint256"
        },
        {
          "name": "_endDate",
          "type": "uint256"
        }
      ],
      "payable": false,
      "stateMutability": "nonpayable",
      "type": "constructor"
    },
    {
      "constant": false,
      "inputs": [
        {
          "name": "_userID",
          "type": "bytes32"
        },
        {
          "name": "_optionIDs",
          "type": "bytes32[]"
        }
      ],
      "name": "vote",
      "outputs": [],
      "payable": false,
      "stateMutability": "nonpayable",
      "type": "function"
    },
    {
      "constant": true,
      "inputs": [],
      "name": "getTotalVotes",
      "outputs": [
        {
          "name": "",
          "type": "uint256"
        }
      ],
      "payable": false,
      "stateMutability": "view",
      "type": "function"
    },
    {
      "constant": true,
      "inputs": [],
      "name": "getNumOfVoter",
      "outputs": [
        {
          "name": "",
          "type": "uint256"
        }
      ],
      "payable": false,
      "stateMutability": "view",
      "type": "function"
    },
    {
      "constant": true,
      "inputs": [
        {
          "name": "_optionID",
          "type": "bytes32"
        }
      ],
      "name": "getTotalVoteOfOption",
      "outputs": [
        {
          "name": "",
          "type": "uint256"
        }
      ],
      "payable": false,
      "stateMutability": "view",
      "type": "function"
    }
  ],
  "bytecode": "0x608060405234801561001057600080fd5b50604051610bdb380380610bdb8339810180604052810190808051906020019092919080518201929190602001805190602001909291908051906020019092919080519060200190929190505050336000806101000a81548173ffffffffffffffffffffffffffffffffffffffff021916908373ffffffffffffffffffffffffffffffffffffffff160217905550846001816000191690555083600290805190602001906100bf9291906100df565b508260038190555081600481905550806005819055505050505050610157565b828054828255906000526020600020908101928215610121579160200282015b828111156101205782518290600019169055916020019190600101906100ff565b5b50905061012e9190610132565b5090565b61015491905b80821115610150576000816000905550600101610138565b5090565b90565b610a75806101666000396000f300608060405260043610610062576000357c0100000000000000000000000000000000000000000000000000000000900463ffffffff16806382a53fbc146100675780639a0e7d66146100db578063ce1f059814610106578063ea0183f914610131575b600080fd5b34801561007357600080fd5b506100d9600480360381019080803560001916906020019092919080359060200190820180359060200190808060200260200160405190810160405280939291908181526020018383602002808284378201915050505050509192919290505050610176565b005b3480156100e757600080fd5b506100f06108f9565b6040518082815260200191505060405180910390f35b34801561011257600080fd5b5061011b610903565b6040518082815260200191505060405180910390f35b34801561013d57600080fd5b506101606004803603810190808035600019169060200190929190505050610910565b6040518082815260200191505060405180910390f35b600454421015801561018a57506005544211155b15156101fe576040517f08c379a00000000000000000000000000000000000000000000000000000000081526004018080602001828103825260208152602001807f4e6f77206973206e6f742076616c69642074696d6520666f7220766f74696e6781525060200191505060405180910390fd5b6000600860003373ffffffffffffffffffffffffffffffffffffffff1673ffffffffffffffffffffffffffffffffffffffff168152602001908152602001600020541415156102b5576040517f08c379a00000000000000000000000000000000000000000000000000000000081526004018080602001828103825260108152602001807f566f746572206973206578697374656e0000000000000000000000000000000081525060200191505060405180910390fd5b600280548060200260200160405190810160405280929190818152602001828054801561030557602002820191906000526020600020905b815460001916815260200190600101908083116102ed575b505050505060028054905073__UtilsLib______________________________63c57bab60836040518263ffffffff167c01000000000000000000000000000000000000000000000000000000000281526004018080602001828103825283818151815260200191508051906020019060200280838360005b8381101561039957808201518184015260208101905061037e565b505050509050019250505060006040518083038186803b1580156103bc57600080fd5b505af41580156103d0573d6000803e3d6000fd5b505050506040513d6000823e3d601f19601f8201168201806040525060208110156103fa57600080fd5b81019080805164010000000081111561041257600080fd5b8281019050602081018481111561042857600080fd5b815185602082028301116401000000008211171561044557600080fd5b5050929190505050511415156104c3576040517f08c379a000000000000000000000000000000000000000000000000000000000815260040180806020018281038252601b8152602001807f4f7074696f6e204944732073686f756c6420626520756e69717565000000000081525060200191505060405180910390fd5b600280548060200260200160405190810160405280929190818152602001828054801561051357602002820191906000526020600020905b815460001916815260200190600101908083116104fb575b505050505060028054905073__UtilsLib______________________________63f2e78df16002846040518363ffffffff167c010000000000000000000000000000000000000000000000000000000002815260040180806020018060200183810383528581815481526020019150805480156105b357602002820191906000526020600020905b8154600019168152602001906001019080831161059b575b5050838103825284818151815260200191508051906020019060200280838360005b838110156105f05780820151818401526020810190506105d5565b5050505090500194505050505060006040518083038186803b15801561061557600080fd5b505af4158015610629573d6000803e3d6000fd5b505050506040513d6000823e3d601f19601f82011682018060405250602081101561065357600080fd5b81019080805164010000000081111561066b57600080fd5b8281019050602081018481111561068157600080fd5b815185602082028301116401000000008211171561069e57600080fd5b50509291905050505114151561071c576040517f08c379a000000000000000000000000000000000000000000000000000000000815260040180806020018281038252601a8152602001807f4f7074696f6e204944732073686f756c642062652076616c696400000000000081525060200191505060405180910390fd5b826003548151111515156107be576040517f08c379a00000000000000000000000000000000000000000000000000000000081526004018080602001828103825260228152602001807f53656c6563746564206f7074696f6e73206578636565647320746865206c696d81526020017f697400000000000000000000000000000000000000000000000000000000000081525060400191505060405180910390fd5b60076060604051908101604052803373ffffffffffffffffffffffffffffffffffffffff16815260200187600019168152602001868152509080600181540180825580915050906001820390600052602060002090600302016000909192909190915060008201518160000160006101000a81548173ffffffffffffffffffffffffffffffffffffffff021916908373ffffffffffffffffffffffffffffffffffffffff1602179055506020820151816001019060001916905560408201518160020190805190602001906108949291906109d1565b50505050600780549050600860003373ffffffffffffffffffffffffffffffffffffffff1673ffffffffffffffffffffffffffffffffffffffff1681526020019081526020016000208190555083516006600082825401925050819055505050505050565b6000600654905090565b6000600780549050905090565b60008060008060009250600091505b6007805490508210156109c657600090505b60078281548110151561094057fe5b9060005260206000209060030201600201805490508110156109b957846000191660078381548110151561097057fe5b90600052602060002090600302016002018281548110151561098e57fe5b90600052602060002001546000191614156109ac5782806001019350505b8080600101915050610931565b818060010192505061091f565b829350505050919050565b828054828255906000526020600020908101928215610a13579160200282015b82811115610a125782518290600019169055916020019190600101906109f1565b5b509050610a209190610a24565b5090565b610a4691905b80821115610a42576000816000905550600101610a2a565b5090565b905600a165627a7a72305820f09679e93d7411ffa09f7b939669c52a59326ceece078e0efce8a382b8832cb10029",
  "source": "pragma solidity ^0.4.17;\n\nimport { UtilsLib } from \"./UtilsLib.sol\";\n\ncontract Polling {\n\n  address owner;\n\n  bytes32 id;\n  bytes32[] optionIDs;\n  uint maxSelected;\n  uint startDate;\n  uint endDate;\n\n  struct Voter {\n    address addr;\n    bytes32 userID;\n    bytes32[] optionIDs;\n  }\n\n  uint totalVotes; // total vote from voter\n\n  Voter[] voters; // index-0\n  mapping (address => uint) mVoters; // index-1, default is 0\n\n  modifier onlyOwner() {\n    require(msg.sender == owner, \"Only owner can access\");\n    _;\n  }\n\n  constructor(bytes32 _id, bytes32[] _optionIDs, uint _maxSelected, uint _startDate, uint _endDate) public {\n    owner = msg.sender;\n    id = _id;\n    optionIDs = _optionIDs;\n    maxSelected = _maxSelected;\n    startDate = _startDate;\n    endDate = _endDate;\n  }\n\n  modifier shouldBeInValidTerm() {\n    require(\n      now >= startDate && now <= endDate, \n      \"Now is not valid time for voting\"\n    );\n    _;\n  }\n\n  modifier shouldBeNewVoter() {\n    require(\n      mVoters[msg.sender] == 0,\n      \"Voter is existen\"\n    );\n    _;\n  }\n\n  modifier shouldBeUniqueOptionIDs(bytes32[] _optionIDs) {\n    require(\n      UtilsLib.uniqueArrayOfBytes32(_optionIDs).length == optionIDs.length,\n      \"Option IDs should be unique\"\n    );\n    _;\n  }\n\n  modifier shouldBeValidOptionIDs(bytes32[] _optionIDs) {\n    require(\n      UtilsLib.filterValidValuesArrayOfBytes32(optionIDs, _optionIDs).length == optionIDs.length,\n      \"Option IDs should be valid\"\n    );\n    _;\n  }\n\n  modifier shouldBeInLimitSelectedOptionIDs(bytes32[] _optionIDs) {\n    require(\n      _optionIDs.length <= maxSelected,\n      \"Selected options exceeds the limit\");\n    _;\n  }\n\n  /**\n   * Function: Transaction\n   */\n  function vote(bytes32 _userID, bytes32[] _optionIDs) public\n    shouldBeInValidTerm()\n    shouldBeNewVoter()\n    shouldBeUniqueOptionIDs(optionIDs)\n    shouldBeValidOptionIDs(optionIDs)\n    shouldBeInLimitSelectedOptionIDs(_optionIDs) \n  {\n    voters.push(Voter(msg.sender, _userID, _optionIDs));\n    mVoters[msg.sender] = voters.length;\n    totalVotes += _optionIDs.length;\n  }\n\n\n  /**\n   * Functions: Message Call\n   */\n  function getTotalVotes() public view returns (uint) {\n    return totalVotes;\n  }\n\n  function getNumOfVoter() public view returns (uint) {\n    return voters.length;\n  }\n\n  function getTotalVoteOfOption(bytes32 _optionID) public view returns (uint) {\n    uint res = 0;\n    for (uint i = 0; i < voters.length; i++) {\n      for (uint j = 0; j < voters[i].optionIDs.length; j++) {\n        if (voters[i].optionIDs[j] == _optionID) res++;\n      }\n    }\n    return res;\n  }\n}\n",
  "sourcePath": "/Users/huynhha/Documents/dvapp/server/contracts/Polling.sol",
  "compiler": {
    "name": "solc",
    "version": "0.4.24+commit.e67f0147.Emscripten.clang"
  },
  "schemaVersion": "2.0.1",
  "updatedAt": "2018-08-10T04:21:40.141Z"
}