{
  "contractName": "Polling",
  "abi": [
    {
      "inputs": [
        {
          "name": "_id",
          "type": "bytes32"
        },
        {
          "name": "_optionIDs",
          "type": "bytes32[]"
        },
        {
          "name": "_maxSelected",
          "type": "uint256"
        },
        {
          "name": "_startDate",
          "type": "uint256"
        },
        {
          "name": "_endDate",
          "type": "uint256"
        }
      ],
      "payable": false,
      "stateMutability": "nonpayable",
      "type": "constructor"
    },
    {
      "constant": false,
      "inputs": [
        {
          "name": "arr",
          "type": "bytes32[]"
        }
      ],
      "name": "uniqueArrayOfBytes32",
      "outputs": [
        {
          "name": "",
          "type": "bytes32[]"
        }
      ],
      "payable": false,
      "stateMutability": "nonpayable",
      "type": "function"
    },
    {
      "constant": false,
      "inputs": [
        {
          "name": "pattern",
          "type": "bytes32[]"
        },
        {
          "name": "arr",
          "type": "bytes32[]"
        }
      ],
      "name": "filterValidValuesArrayOfBytes32",
      "outputs": [
        {
          "name": "",
          "type": "bytes32[]"
        }
      ],
      "payable": false,
      "stateMutability": "nonpayable",
      "type": "function"
    },
    {
      "constant": false,
      "inputs": [
        {
          "name": "_userID",
          "type": "bytes32"
        },
        {
          "name": "_optionIDs",
          "type": "bytes32[]"
        }
      ],
      "name": "vote",
      "outputs": [],
      "payable": false,
      "stateMutability": "nonpayable",
      "type": "function"
    },
    {
      "constant": true,
      "inputs": [],
      "name": "getTotalVotes",
      "outputs": [
        {
          "name": "",
          "type": "uint256"
        }
      ],
      "payable": false,
      "stateMutability": "view",
      "type": "function"
    },
    {
      "constant": true,
      "inputs": [],
      "name": "getNumOfVoter",
      "outputs": [
        {
          "name": "",
          "type": "uint256"
        }
      ],
      "payable": false,
      "stateMutability": "view",
      "type": "function"
    },
    {
      "constant": true,
      "inputs": [
        {
          "name": "_optionID",
          "type": "bytes32"
        }
      ],
      "name": "getTotalVoteOfOption",
      "outputs": [
        {
          "name": "",
          "type": "uint256"
        }
      ],
      "payable": false,
      "stateMutability": "view",
      "type": "function"
    }
  ],
  "bytecode": "0x608060405234801561001057600080fd5b50604051610dc0380380610dc08339810180604052810190808051906020019092919080518201929190602001805190602001909291908051906020019092919080519060200190929190505050336000806101000a81548173ffffffffffffffffffffffffffffffffffffffff021916908373ffffffffffffffffffffffffffffffffffffffff160217905550846001816000191690555083600290805190602001906100bf9291906100df565b508260038190555081600481905550806005819055505050505050610157565b828054828255906000526020600020908101928215610121579160200282015b828111156101205782518290600019169055916020019190600101906100ff565b5b50905061012e9190610132565b5090565b61015491905b80821115610150576000816000905550600101610138565b5090565b90565b610c5a806101666000396000f300608060405260043610610078576000357c0100000000000000000000000000000000000000000000000000000000900463ffffffff16806382a53fbc1461007d5780639a0e7d66146100f1578063c57bab601461011c578063ce1f0598146101d7578063ea0183f914610202578063f2e78df114610247575b600080fd5b34801561008957600080fd5b506100ef600480360381019080803560001916906020019092919080359060200190820180359060200190808060200260200160405190810160405280939291908181526020018383602002808284378201915050505050509192919290505050610345565b005b3480156100fd57600080fd5b5061010661086a565b6040518082815260200191505060405180910390f35b34801561012857600080fd5b5061018060048036038101908080359060200190820180359060200190808060200260200160405190810160405280939291908181526020018383602002808284378201915050505050509192919290505050610874565b6040518080602001828103825283818151815260200191508051906020019060200280838360005b838110156101c35780820151818401526020810190506101a8565b505050509050019250505060405180910390f35b3480156101e357600080fd5b506101ec6109b0565b6040518082815260200191505060405180910390f35b34801561020e57600080fd5b5061023160048036038101908080356000191690602001909291905050506109bd565b6040518082815260200191505060405180910390f35b34801561025357600080fd5b506102ee6004803603810190808035906020019082018035906020019080806020026020016040519081016040528093929190818152602001838360200280828437820191505050505050919291929080359060200190820180359060200190808060200260200160405190810160405280939291908181526020018383602002808284378201915050505050509192919290505050610a7e565b6040518080602001828103825283818151815260200191508051906020019060200280838360005b83811015610331578082015181840152602081019050610316565b505050509050019250505060405180910390f35b600454421015801561035957506005544211155b15156103cd576040517f08c379a00000000000000000000000000000000000000000000000000000000081526004018080602001828103825260208152602001807f4e6f77206973206e6f742076616c69642074696d6520666f7220766f74696e6781525060200191505060405180910390fd5b6000600860003373ffffffffffffffffffffffffffffffffffffffff1673ffffffffffffffffffffffffffffffffffffffff16815260200190815260200160002054141515610484576040517f08c379a00000000000000000000000000000000000000000000000000000000081526004018080602001828103825260108152602001807f566f746572206973206578697374656e0000000000000000000000000000000081525060200191505060405180910390fd5b60028054806020026020016040519081016040528092919081815260200182805480156104d457602002820191906000526020600020905b815460001916815260200190600101908083116104bc575b50505050506002805490506104e882610874565b5114151561055e576040517f08c379a000000000000000000000000000000000000000000000000000000000815260040180806020018281038252601b8152602001807f4f7074696f6e204944732073686f756c6420626520756e69717565000000000081525060200191505060405180910390fd5b60028054806020026020016040519081016040528092919081815260200182805480156105ae57602002820191906000526020600020905b81546000191681526020019060010190808311610596575b5050505050600280549050610617600280548060200260200160405190810160405280929190818152602001828054801561060c57602002820191906000526020600020905b815460001916815260200190600101908083116105f4575b505050505083610a7e565b5114151561068d576040517f08c379a000000000000000000000000000000000000000000000000000000000815260040180806020018281038252601a8152602001807f4f7074696f6e204944732073686f756c642062652076616c696400000000000081525060200191505060405180910390fd5b8260035481511115151561072f576040517f08c379a00000000000000000000000000000000000000000000000000000000081526004018080602001828103825260228152602001807f53656c6563746564206f7074696f6e73206578636565647320746865206c696d81526020017f697400000000000000000000000000000000000000000000000000000000000081525060400191505060405180910390fd5b60076060604051908101604052803373ffffffffffffffffffffffffffffffffffffffff16815260200187600019168152602001868152509080600181540180825580915050906001820390600052602060002090600302016000909192909190915060008201518160000160006101000a81548173ffffffffffffffffffffffffffffffffffffffff021916908373ffffffffffffffffffffffffffffffffffffffff160217905550602082015181600101906000191690556040820151816002019080519060200190610805929190610bb6565b50505050600780549050600860003373ffffffffffffffffffffffffffffffffffffffff1673ffffffffffffffffffffffffffffffffffffffff1681526020019081526020016000208190555083516006600082825401925050819055505050505050565b6000600654905090565b6060600080600080600092505b85518310156109515760009150600090505b83805490508110156108f45783818154811015156108ad57fe5b90600052602060002001546000191686848151811015156108ca57fe5b906020019060200201516000191614156108e757600191506108f4565b8080600101915050610893565b8115156109445783868481518110151561090a57fe5b9060200190602002015190806001815401808255809150509060018203906000526020600020016000909192909190915090600019169055505b8280600101935050610881565b838054806020026020016040519081016040528092919081815260200182805480156109a057602002820191906000526020600020905b81546000191681526020019060010190808311610988575b5050505050945050505050919050565b6000600780549050905090565b60008060008060009250600091505b600780549050821015610a7357600090505b6007828154811015156109ed57fe5b906000526020600020906003020160020180549050811015610a66578460001916600783815481101515610a1d57fe5b906000526020600020906003020160020182815481101515610a3b57fe5b9060005260206000200154600019161415610a595782806001019350505b80806001019150506109de565b81806001019250506109cc565b829350505050919050565b6060600080600080600092505b8551831015610b565760009150600090505b8651811015610afa578681815181101515610ab457fe5b90602001906020020151600019168684815181101515610ad057fe5b90602001906020020151600019161415610aed5760019150610afa565b8080600101915050610a9d565b8115610b4957838684815181101515610b0f57fe5b9060200190602002015190806001815401808255809150509060018203906000526020600020016000909192909190915090600019169055505b8280600101935050610a8b565b83805480602002602001604051908101604052809291908181526020018280548015610ba557602002820191906000526020600020905b81546000191681526020019060010190808311610b8d575b505050505094505050505092915050565b828054828255906000526020600020908101928215610bf8579160200282015b82811115610bf7578251829060001916905591602001919060010190610bd6565b5b509050610c059190610c09565b5090565b610c2b91905b80821115610c27576000816000905550600101610c0f565b5090565b905600a165627a7a723058204de55bf093510b9aacd8d1adade6c46d2ef8f15b9d304b4df9146d0f15735b260029",
  "source": "pragma solidity ^0.4.17;\n\ncontract Polling {\n\n  address owner;\n\n  bytes32 id;\n  bytes32[] optionIDs;\n  uint maxSelected;\n  uint startDate;\n  uint endDate;\n\n  struct Voter {\n    address addr;\n    bytes32 userID;\n    bytes32[] optionIDs;\n  }\n\n  uint totalVotes; // total vote from voter\n\n  Voter[] voters; // index-0\n  mapping (address => uint) mVoters; // index-1, default is 0\n\n  modifier onlyOwner() {\n    require(msg.sender == owner, \"Only owner can access\");\n    _;\n  }\n\n  constructor(bytes32 _id, bytes32[] _optionIDs, uint _maxSelected, uint _startDate, uint _endDate) public {\n    owner = msg.sender;\n    id = _id;\n    optionIDs = _optionIDs;\n    maxSelected = _maxSelected;\n    startDate = _startDate;\n    endDate = _endDate;\n  }\n\n   /**\n   * Unique items of an array of bytes32\n   * Return array of unique items\n   * @param arr array of bytes32 should be uniqued\n   */\n  function uniqueArrayOfBytes32(bytes32[] arr) public returns (bytes32[]) {\n    bytes32[] res;\n    for (uint i = 0; i < arr.length; i++) {\n      bool existen = false;\n      for (uint j = 0; j < res.length; j++) {\n        if (arr[i] == res[j]) {\n          existen = true;\n          break;\n        }\n      }\n      if (!existen) res.push(arr[i]);\n    }\n    return res;\n  }\n\n  /**\n   * Filter items of an array of bytes32 which each item\n   * should be valid in a pattern array.\n   * Return array of items which each item is existen in pattern array\n   * @param pattern origin array\n   * @param arr array of bytes32 should be filtered\n   */\n  function filterValidValuesArrayOfBytes32(bytes32[] pattern, bytes32[] arr) public returns (bytes32[]) {\n    bytes32[] res;\n    for (uint i = 0; i < arr.length; i++) {\n      bool valid = false;\n      for (uint j = 0; j < pattern.length; j++) {\n        if (arr[i] == pattern[j]) {\n          valid = true;\n          break;\n        }\n      }\n      if (valid) res.push(arr[i]);\n    }\n    return res;\n  }\n\n  modifier shouldBeInValidTerm() {\n    require(\n      now >= startDate && now <= endDate, \n      \"Now is not valid time for voting\"\n    );\n    _;\n  }\n\n  modifier shouldBeNewVoter() {\n    require(\n      mVoters[msg.sender] == 0,\n      \"Voter is existen\"\n    );\n    _;\n  }\n\n  modifier shouldBeUniqueOptionIDs(bytes32[] _optionIDs) {\n    require(\n      uniqueArrayOfBytes32(_optionIDs).length == optionIDs.length,\n      \"Option IDs should be unique\"\n    );\n    _;\n  }\n\n  modifier shouldBeValidOptionIDs(bytes32[] _optionIDs) {\n    require(\n      filterValidValuesArrayOfBytes32(optionIDs, _optionIDs).length == optionIDs.length,\n      \"Option IDs should be valid\"\n    );\n    _;\n  }\n\n  modifier shouldBeInLimitSelectedOptionIDs(bytes32[] _optionIDs) {\n    require(\n      _optionIDs.length <= maxSelected,\n      \"Selected options exceeds the limit\");\n    _;\n  }\n\n  /**\n   * Function: Transaction\n   */\n  function vote(bytes32 _userID, bytes32[] _optionIDs) public\n    shouldBeInValidTerm()\n    shouldBeNewVoter()\n    shouldBeUniqueOptionIDs(optionIDs)\n    shouldBeValidOptionIDs(optionIDs)\n    shouldBeInLimitSelectedOptionIDs(_optionIDs) \n  {\n    voters.push(Voter(msg.sender, _userID, _optionIDs));\n    mVoters[msg.sender] = voters.length;\n    totalVotes += _optionIDs.length;\n  }\n\n\n  /**\n   * Functions: Message Call\n   */\n  function getTotalVotes() public view returns (uint) {\n    return totalVotes;\n  }\n\n  function getNumOfVoter() public view returns (uint) {\n    return voters.length;\n  }\n\n  function getTotalVoteOfOption(bytes32 _optionID) public view returns (uint) {\n    uint res = 0;\n    for (uint i = 0; i < voters.length; i++) {\n      for (uint j = 0; j < voters[i].optionIDs.length; j++) {\n        if (voters[i].optionIDs[j] == _optionID) res++;\n      }\n    }\n    return res;\n  }\n}\n",
  "sourcePath": "/Users/huynhha/Documents/dvapp/server/contracts/Polling.sol",
  "compiler": {
    "name": "solc",
    "version": "0.4.24+commit.e67f0147.Emscripten.clang"
  },
  "schemaVersion": "2.0.1",
  "updatedAt": "2018-08-11T14:53:05.890Z"
}