{
  "contractName": "Polling",
  "abi": [
    {
      "inputs": [
        {
          "name": "_secretKey",
          "type": "bytes32"
        },
        {
          "name": "_startDate",
          "type": "uint256"
        },
        {
          "name": "_endDate",
          "type": "uint256"
        }
      ],
      "payable": false,
      "stateMutability": "nonpayable",
      "type": "constructor"
    },
    {
      "anonymous": false,
      "inputs": [
        {
          "indexed": false,
          "name": "numVoters",
          "type": "uint256"
        },
        {
          "indexed": false,
          "name": "uid",
          "type": "bytes32"
        },
        {
          "indexed": false,
          "name": "hashValue",
          "type": "bytes32"
        }
      ],
      "name": "VotingCreated",
      "type": "event"
    },
    {
      "anonymous": false,
      "inputs": [
        {
          "indexed": false,
          "name": "startDate",
          "type": "uint256"
        },
        {
          "indexed": false,
          "name": "endDate",
          "type": "uint256"
        }
      ],
      "name": "TimeForVotingChanged",
      "type": "event"
    },
    {
      "constant": false,
      "inputs": [
        {
          "name": "_secretKey",
          "type": "bytes32"
        },
        {
          "name": "uid",
          "type": "bytes32"
        },
        {
          "name": "hashValue",
          "type": "bytes32"
        }
      ],
      "name": "createVoting",
      "outputs": [],
      "payable": false,
      "stateMutability": "nonpayable",
      "type": "function"
    },
    {
      "constant": false,
      "inputs": [
        {
          "name": "_secretKey",
          "type": "bytes32"
        },
        {
          "name": "_startDate",
          "type": "uint256"
        },
        {
          "name": "_endDate",
          "type": "uint256"
        }
      ],
      "name": "changeTimeForVoting",
      "outputs": [],
      "payable": false,
      "stateMutability": "nonpayable",
      "type": "function"
    },
    {
      "constant": true,
      "inputs": [],
      "name": "getTimeForVoting",
      "outputs": [
        {
          "name": "",
          "type": "uint256"
        },
        {
          "name": "",
          "type": "uint256"
        },
        {
          "name": "",
          "type": "uint256"
        }
      ],
      "payable": false,
      "stateMutability": "view",
      "type": "function"
    },
    {
      "constant": true,
      "inputs": [],
      "name": "getNumVoter",
      "outputs": [
        {
          "name": "",
          "type": "uint256"
        }
      ],
      "payable": false,
      "stateMutability": "view",
      "type": "function"
    }
  ],
  "bytecode": "0x608060405234801561001057600080fd5b506040516060806108c38339810180604052810190808051906020019092919080519060200190929190805190602001909291905050508181808210801561005757504281115b15156100cb576040517f08c379a000000000000000000000000000000000000000000000000000000000815260040180806020018281038252601b8152602001807f53686f756c6420686176652074696d6520666f7220766f74696e67000000000081525060200191505060405180910390fd5b336000806101000a81548173ffffffffffffffffffffffffffffffffffffffff021916908373ffffffffffffffffffffffffffffffffffffffff16021790555084600181600019169055508360028190555082600381905550505050505061078b806101386000396000f300608060405260043610610062576000357c0100000000000000000000000000000000000000000000000000000000900463ffffffff1680631a14962b14610067578063344528cd146100b4578063560c2e1e146100ed578063633f067d14610118575b600080fd5b34801561007357600080fd5b506100b260048036038101908080356000191690602001909291908035600019169060200190929190803560001916906020019092919050505061015d565b005b3480156100c057600080fd5b506100c961051b565b60405180848152602001838152602001828152602001935050505060405180910390f35b3480156100f957600080fd5b50610102610532565b6040518082815260200191505060405180910390f35b34801561012457600080fd5b5061015b6004803603810190808035600019169060200190929190803590602001909291908035906020019092919050505061053c565b005b6000809054906101000a900473ffffffffffffffffffffffffffffffffffffffff1673ffffffffffffffffffffffffffffffffffffffff163373ffffffffffffffffffffffffffffffffffffffff16141515610221576040517f08c379a00000000000000000000000000000000000000000000000000000000081526004018080602001828103825260118152602001807f4f6e6c79206f776e65722063616e20646f00000000000000000000000000000081525060200191505060405180910390fd5b826001546000191681600019161415156102a3576040517f08c379a000000000000000000000000000000000000000000000000000000000815260040180806020018281038252601b8152602001807f446f6e2774206861766520616e20617574686f72697a6174696f6e000000000081525060200191505060405180910390fd5b600254421015151561031d576040517f08c379a00000000000000000000000000000000000000000000000000000000081526004018080602001828103825260188152602001807f49742773206e6f742074696d6520666f7220766f74696e67000000000000000081525060200191505060405180910390fd5b6003544211151515610397576040517f08c379a00000000000000000000000000000000000000000000000000000000081526004018080602001828103825260188152602001807f4974277320746f6f206c61746520666f7220766f74696e67000000000000000081525060200191505060405180910390fd5b826000151560046000836000191660001916815260200190815260200160002060010160009054906101000a900460ff16151514151561043f576040517f08c379a00000000000000000000000000000000000000000000000000000000081526004018080602001828103825260158152602001807f5468652075736572207573656420746f20766f7465000000000000000000000081525060200191505060405180910390fd5b600560008154809291906001019190505550604080519081016040528084600019168152602001600115158152506004600086600019166000191681526020019081526020016000206000820151816000019060001916905560208201518160010160006101000a81548160ff0219169083151502179055509050507f026c6e451f469d1ced0a7ce9e358f196b9926538679bbc27327ce87efea4560660055485856040518084815260200183600019166000191681526020018260001916600019168152602001935050505060405180910390a15050505050565b600080600060025460035442925092509250909192565b6000600554905090565b6000809054906101000a900473ffffffffffffffffffffffffffffffffffffffff1673ffffffffffffffffffffffffffffffffffffffff163373ffffffffffffffffffffffffffffffffffffffff16141515610600576040517f08c379a00000000000000000000000000000000000000000000000000000000081526004018080602001828103825260118152602001807f4f6e6c79206f776e65722063616e20646f00000000000000000000000000000081525060200191505060405180910390fd5b82600154600019168160001916141515610682576040517f08c379a000000000000000000000000000000000000000000000000000000000815260040180806020018281038252601b8152602001807f446f6e2774206861766520616e20617574686f72697a6174696f6e000000000081525060200191505060405180910390fd5b8282808210801561069257504281115b1515610706576040517f08c379a000000000000000000000000000000000000000000000000000000000815260040180806020018281038252601b8152602001807f53686f756c6420686176652074696d6520666f7220766f74696e67000000000081525060200191505060405180910390fd5b84600281905550836003819055507f7afd3ea7ac4ef32e216041026bda19e0a616917b3ed63f85cbaa914f4f85e853600254600354604051808381526020018281526020019250505060405180910390a15050505050505600a165627a7a7230582035382b023c6823a9806add3c8822baadebaf399670a492d533798d88770d9db00029",
  "source": "pragma solidity ^0.4.17;\n\ncontract Polling {\n    \n    address owner;\n    bytes32 secretKey;\n    \n    uint startDate;\n    uint endDate;\n    \n    struct Vote {\n        bytes32 hashValue;\n        bool used;\n    }\n    \n    mapping(bytes32 => Vote) voters;\n    uint numVoters;\n    \n    \n    /** \n     * Events - Name is used as a sentence\n     */\n    event VotingCreated(uint numVoters, bytes32 uid, bytes32 hashValue);\n    event TimeForVotingChanged(uint startDate, uint endDate);\n    \n    \n    /** \n     * Modifiers\n     */\n    modifier shouldBeValidContract(uint _startDate, uint _endDate) {\n        require(\n            _startDate < _endDate && _endDate > now, \n            \"Should have time for voting\"\n        );\n        _;\n    }\n\n    modifier shouldBeOwner() {\n        require(msg.sender == owner, \"Only owner can do\");\n        _;\n    }\n    \n    modifier shouldBeAuthorized(bytes32 _secretKey) {\n        require(_secretKey == secretKey, \"Don't have an authorization\");\n        _;\n    }\n    \n    modifier shouldBeValidTime() {\n        require(now >= startDate, \"It's not time for voting\");\n        require(now <= endDate, \"It's too late for voting\");\n        _;\n    }\n    \n    modifier shouldBeValidUser(bytes32 uid) {\n        require(voters[uid].used == false, \"The user used to vote\");\n        _;\n    }\n    \n    \n    /** \n     * Functions - Transaction methods\n     */\n    constructor(bytes32 _secretKey, uint _startDate, uint _endDate) public\n        shouldBeValidContract(_startDate, _endDate)\n    {\n        owner = msg.sender;\n        secretKey = _secretKey;\n        startDate = _startDate;\n        endDate = _endDate;\n    }\n    \n    function createVoting(bytes32 _secretKey, bytes32 uid, bytes32 hashValue) public\n        shouldBeOwner()\n        shouldBeAuthorized(_secretKey)\n        shouldBeValidTime()\n        shouldBeValidUser(uid)\n    {\n        numVoters++;\n        voters[uid] = Vote(hashValue, true);\n        emit VotingCreated(numVoters, uid, hashValue);\n    }\n    \n    function changeTimeForVoting(bytes32 _secretKey, uint _startDate, uint _endDate) public\n        shouldBeOwner()\n        shouldBeAuthorized(_secretKey)\n        shouldBeValidContract(_startDate, _endDate) \n    {\n        startDate = _startDate;\n        endDate = _endDate;\n        emit TimeForVotingChanged(startDate, endDate);\n    }\n    \n    /**\n     * Getter functions, Call methods\n     * Use keyword 'public view', use prefix 'get'\n     */\n    function getTimeForVoting() public view returns (uint, uint, uint) {\n        return (startDate, endDate, now);\n    }\n    \n    function getNumVoter() public view returns (uint) {\n        return numVoters;\n    }\n}\n",
  "sourcePath": "/Users/huynhha/Documents/dvapp/server/contracts/Polling.sol",
  "compiler": {
    "name": "solc",
    "version": "0.4.24+commit.e67f0147.Emscripten.clang"
  },
  "schemaVersion": "2.0.1",
  "updatedAt": "2018-08-20T02:22:30.572Z"
}