{
  "contractName": "TestVoting",
  "abi": [
    {
      "inputs": [
        {
          "name": "_secretKey",
          "type": "bytes32"
        }
      ],
      "payable": false,
      "stateMutability": "nonpayable",
      "type": "constructor"
    },
    {
      "anonymous": false,
      "inputs": [
        {
          "indexed": false,
          "name": "numCandidates",
          "type": "uint256"
        },
        {
          "indexed": false,
          "name": "uid",
          "type": "bytes32"
        }
      ],
      "name": "CandidateAdded",
      "type": "event"
    },
    {
      "anonymous": false,
      "inputs": [
        {
          "indexed": false,
          "name": "uid",
          "type": "bytes32"
        },
        {
          "indexed": false,
          "name": "point",
          "type": "uint256"
        }
      ],
      "name": "CandidateVoted",
      "type": "event"
    },
    {
      "constant": false,
      "inputs": [
        {
          "name": "_secretKey",
          "type": "bytes32"
        },
        {
          "name": "uid",
          "type": "bytes32"
        }
      ],
      "name": "addCandidate",
      "outputs": [],
      "payable": false,
      "stateMutability": "nonpayable",
      "type": "function"
    },
    {
      "constant": false,
      "inputs": [
        {
          "name": "uid",
          "type": "bytes32"
        }
      ],
      "name": "voteCandidate",
      "outputs": [],
      "payable": false,
      "stateMutability": "nonpayable",
      "type": "function"
    },
    {
      "constant": true,
      "inputs": [],
      "name": "getNumCandidates",
      "outputs": [
        {
          "name": "",
          "type": "uint256"
        }
      ],
      "payable": false,
      "stateMutability": "view",
      "type": "function"
    },
    {
      "constant": true,
      "inputs": [
        {
          "name": "uid",
          "type": "bytes32"
        }
      ],
      "name": "getPointCadidate",
      "outputs": [
        {
          "name": "",
          "type": "uint256"
        }
      ],
      "payable": false,
      "stateMutability": "view",
      "type": "function"
    }
  ],
  "bytecode": "0x608060405234801561001057600080fd5b506040516020806105248339810180604052810190808051906020019092919050505033600160006101000a81548173ffffffffffffffffffffffffffffffffffffffff021916908373ffffffffffffffffffffffffffffffffffffffff1602179055508060008160001916905550506104958061008f6000396000f300608060405260043610610062576000357c0100000000000000000000000000000000000000000000000000000000900463ffffffff1680635c06b06e14610067578063831b750314610092578063a1adbb25146100c3578063b928df2414610102575b600080fd5b34801561007357600080fd5b5061007c610147565b6040518082815260200191505060405180910390f35b34801561009e57600080fd5b506100c16004803603810190808035600019169060200190929190505050610151565b005b3480156100cf57600080fd5b50610100600480360381019080803560001916906020019092919080356000191690602001909291905050506101e7565b005b34801561010e57600080fd5b506101316004803603810190808035600019169060200190929190505050610441565b6040518082815260200191505060405180910390f35b6000600354905090565b600260008260001916600019168152602001908152602001600020600101600081548092919060010191905055507f69f36057c80cb646e0edcd2e463c55f7301ad19794aa041fa3036f04e6fb51c581600260008460001916600019168152602001908152602001600020600101546040518083600019166000191681526020018281526020019250505060405180910390a150565b81600160009054906101000a900473ffffffffffffffffffffffffffffffffffffffff1673ffffffffffffffffffffffffffffffffffffffff163373ffffffffffffffffffffffffffffffffffffffff161415156102ad576040517f08c379a000000000000000000000000000000000000000000000000000000000815260040180806020018281038252600f8152602001807f53686f756c64206265206f776e6572000000000000000000000000000000000081525060200191505060405180910390fd5b60005460001916816000191614151561032e576040517f08c379a000000000000000000000000000000000000000000000000000000000815260040180806020018281038252601e8152602001807f53686f756c64206861766520636f727265637420736563726574206b6579000081525060200191505060405180910390fd5b60026000836000191660001916815260200190815260200160002060020160009054906101000a900460ff16151561036557600080fd5b606060405190810160405280836000191681526020016000815260200160011515815250600260008460001916600019168152602001908152602001600020600082015181600001906000191690556020820151816001015560408201518160020160006101000a81548160ff0219169083151502179055509050506003600081548092919060010191905055507f80654411803465330f578f05c8c73c5a2a4d0deb5ea571b80d93d99714143452600354836040518083815260200182600019166000191681526020019250505060405180910390a1505050565b60006002600083600019166000191681526020019081526020016000206001015490509190505600a165627a7a723058209bb136a76e0d4a921d9a8a19dc590a52f0f0da33ff698b273c2849918e766ef60029",
  "source": "pragma solidity ^0.4.0;\n\ncontract TestVoting {\n    \n    struct Candidate {\n        bytes32 uid;\n        uint point;\n        bool valid;\n    }\n    \n    bytes32 secretKey;\n    address owner;\n    mapping(bytes32 => Candidate) candidates;\n    uint numCandidates;\n    \n    event CandidateAdded(uint numCandidates, bytes32 uid);\n    event CandidateVoted(bytes32 uid, uint point);\n    \n    constructor(bytes32 _secretKey) public {\n        owner = msg.sender;\n        secretKey = _secretKey;\n    }\n    \n    modifier Authorization(bytes32 _secretKey) {\n        require(msg.sender == owner, \"Should be owner\");\n        require(_secretKey == secretKey, \"Should have correct secret key\");\n        _;\n    }\n\n    function addCandidate(bytes32 _secretKey, bytes32 uid) public Authorization(_secretKey) {\n        require(candidates[uid].valid);\n        candidates[uid] = Candidate(uid, 0, true);\n        numCandidates++;\n        emit CandidateAdded(numCandidates, uid);\n    }\n    \n    function voteCandidate(bytes32 uid) public {\n        candidates[uid].point++;\n        emit CandidateVoted(uid, candidates[uid].point);\n    }\n    \n    function getNumCandidates() public view returns (uint) {\n        return numCandidates;\n    }\n    \n    function getPointCadidate(bytes32 uid) public view returns(uint) {\n        return candidates[uid].point;\n    }\n}\n",
  "sourcePath": "/Users/huynhha/Documents/dvapp/server/contracts/TestVoting.sol",
  "compiler": {
    "name": "solc",
    "version": "0.4.24+commit.e67f0147.Emscripten.clang"
  },
  "schemaVersion": "2.0.1",
  "updatedAt": "2018-08-19T01:58:17.396Z"
}