{
  "contractName": "UtilsLib",
  "abi": [
    {
      "constant": false,
      "inputs": [
        {
          "name": "arr",
          "type": "bytes32[]"
        }
      ],
      "name": "uniqueArrayOfBytes32",
      "outputs": [
        {
          "name": "",
          "type": "bytes32[]"
        }
      ],
      "payable": false,
      "stateMutability": "nonpayable",
      "type": "function"
    },
    {
      "constant": false,
      "inputs": [
        {
          "name": "pattern",
          "type": "bytes32[]"
        },
        {
          "name": "arr",
          "type": "bytes32[]"
        }
      ],
      "name": "filterValidValuesArrayOfBytes32",
      "outputs": [
        {
          "name": "",
          "type": "bytes32[]"
        }
      ],
      "payable": false,
      "stateMutability": "nonpayable",
      "type": "function"
    }
  ],
  "bytecode": "0x6104c1610030600b82828239805160001a6073146000811461002057610022565bfe5b5030600052607381538281f3007300000000000000000000000000000000000000003014608060405260043610610063576000357c0100000000000000000000000000000000000000000000000000000000900463ffffffff168063c57bab6014610068578063f2e78df114610123575b600080fd5b81801561007457600080fd5b506100cc60048036038101908080359060200190820180359060200190808060200260200160405190810160405280939291908181526020018383602002808284378201915050505050509192919290505050610221565b6040518080602001828103825283818151815260200191508051906020019060200280838360005b8381101561010f5780820151818401526020810190506100f4565b505050509050019250505060405180910390f35b81801561012f57600080fd5b506101ca600480360381019080803590602001908201803590602001908080602002602001604051908101604052809392919081815260200183836020028082843782019150505050505091929192908035906020019082018035906020019080806020026020016040519081016040528093929190818152602001838360200280828437820191505050505050919291929050505061035d565b6040518080602001828103825283818151815260200191508051906020019060200280838360005b8381101561020d5780820151818401526020810190506101f2565b505050509050019250505060405180910390f35b6060600080600080600092505b85518310156102fe5760009150600090505b83805490508110156102a157838181548110151561025a57fe5b906000526020600020015460001916868481518110151561027757fe5b9060200190602002015160001916141561029457600191506102a1565b8080600101915050610240565b8115156102f1578386848151811015156102b757fe5b9060200190602002015190806001815401808255809150509060018203906000526020600020016000909192909190915090600019169055505b828060010193505061022e565b8380548060200260200160405190810160405280929190818152602001828054801561034d57602002820191906000526020600020905b81546000191681526020019060010190808311610335575b5050505050945050505050919050565b6060600080600080600092505b85518310156104355760009150600090505b86518110156103d957868181518110151561039357fe5b906020019060200201516000191686848151811015156103af57fe5b906020019060200201516000191614156103cc57600191506103d9565b808060010191505061037c565b8115610428578386848151811015156103ee57fe5b9060200190602002015190806001815401808255809150509060018203906000526020600020016000909192909190915090600019169055505b828060010193505061036a565b8380548060200260200160405190810160405280929190818152602001828054801561048457602002820191906000526020600020905b8154600019168152602001906001019080831161046c575b5050505050945050505050929150505600a165627a7a72305820b33b90687999571437a42168ee90b062feda3cd08485e719d3ed018770b6c5f90029",
  "source": "pragma solidity ^0.4.17;\n\nlibrary UtilsLib {\n\n  /**\n   * Unique items of an array of bytes32\n   * Return array of unique items\n   * @param arr array of bytes32 should be uniqued\n   */\n  function uniqueArrayOfBytes32(bytes32[] arr) public returns (bytes32[]) {\n    bytes32[] res;\n    for (uint i = 0; i < arr.length; i++) {\n      bool existen = false;\n      for (uint j = 0; j < res.length; j++) {\n        if (arr[i] == res[j]) {\n          existen = true;\n          break;\n        }\n      }\n      if (!existen) res.push(arr[i]);\n    }\n    return res;\n  }\n\n  /**\n   * Filter items of an array of bytes32 which each item\n   * should be valid in a pattern array.\n   * Return array of items which each item is existen in pattern array\n   * @param pattern origin array\n   * @param arr array of bytes32 should be filtered\n   */\n  function filterValidValuesArrayOfBytes32(bytes32[] pattern, bytes32[] arr) public returns (bytes32[]) {\n    bytes32[] res;\n    for (uint i = 0; i < arr.length; i++) {\n      bool valid = false;\n      for (uint j = 0; j < pattern.length; j++) {\n        if (arr[i] == pattern[j]) {\n          valid = true;\n          break;\n        }\n      }\n      if (valid) res.push(arr[i]);\n    }\n    return res;\n  }\n\n}\n",
  "sourcePath": "/Users/huynhha/Documents/dvapp/server/contracts/UtilsLib.sol",
  "compiler": {
    "name": "solc",
    "version": "0.4.24+commit.e67f0147.Emscripten.clang"
  },
  "schemaVersion": "2.0.1",
  "updatedAt": "2018-08-10T04:21:40.147Z"
}